:03000000020006F5
:03005F0002000399
:030003000200AC4C
:20006200AE82AF837598507589208E428F439001801201E4AE82AF838E42EFF5433395E0F6
:20008200F544F54590C00075F0A8E4120201AC82C3E49CF58DD28E2285829910990280FB5A
:2000A2002210980280FB85998222750857750965750A6C750B63750C6F750D6D750E657574
:2000C2000F2075107475116F751220751338751430751535751631751720751853751965E7
:2000E200751A72751B69751C61751D6C751E20751F4375206F75216D75226D75232C752422
:2001020020752554752679752770752865752920752A74752B68752C65752D20752E637591
:200122002F6875306175317275322075337475346F75352075366275376575382075396545
:20014200753A63753B68753C6F753D65753E64753F3A7540207541009025801200627F0084
:1D016200EF2408F9E7FE600C8E82C00712009AD0070F80EC1200A312009A80F8224B
:20017F00FB7A20E4FCFDFEFFE5822582F582E58333F583E5F033F5F0EB33FB4017DAE980B9
:20019F0042E5822582F582E58333F583E5F033F5F0EB33FBEC33FCED33FDEE33FEEF33FFE8
:2001BF00EC9542ED9543EE9544EF95454013EC9542FCED9543FDEE9544FEEF9545FF4382E2
:0501DF0001DABEEB2275
:06003500E478FFF6D8FD9F
:200013007900E94400601B7A00900257780175A000E493F2A308B8000205A0D9F4DAF2753A
:02003300A0FF2C
:1D01E400E5828542F0A4C582C0F08543F0A4D0F025F0C5838542F0A42583F583222F
:20003B007800E84400600A790175A000E4F309D8FC7800E84400600C7900900001E4F0A3C3
:04005B00D8FCD9FAFA
:20020100FBC2D530E715D2D5E4C39582F582E49583F583E495F0F5F0E49BFBE54530E717AF
:20022100B2D5E4C39542F542E49543F543E49544F544E49545F545EB12017F30D513FBE42B
:12024100C39582F582E49583F583E495F0F5F0E49B22F7
:0D000600758145120253E58260030200037C
:04025300758200228E
:00000001FF
